<!DOCTYPE html>
<html lang="en">
<head prefix="og: http://ogp.me/ns#"><meta name="generator" content="Hexo 3.9.0">
  <meta charset="utf-8">
  <title>MST Multi-signature | Metaverse Docs</title>
  <meta http-equiv="X-UA-Compatible" content="IE=Edge,chrome=1">
  <meta name="viewport" content="width=device-width, initial-scale=1">
  <!-- Canonical links -->
  <link rel="canonical" href="https://docs.mvs.org/developers/da-multi-sig.html">
  <!-- Alternative links -->
  
    
      <link rel="alternative" hreflang="en" href="https://docs.mvs.org/developers/da-multi-sig.html">
    
      <link rel="alternative" hreflang="zh-cn" href="https://docs.mvs.org/zh-cn/developers/da-multi-sig.html">
    
  
  <!-- Icon -->
  <link rel="apple-touch-icon" sizes="57x57" href="/icon/apple-touch-icon-57x57.png">
  <link rel="apple-touch-icon" sizes="114x114" href="/icon/apple-touch-icon-114x114.png">
  <link rel="apple-touch-icon" sizes="72x72" href="/icon/apple-touch-icon-72x72.png">
  <link rel="apple-touch-icon" sizes="144x144" href="/icon/apple-touch-icon-144x144.png">
  <link rel="apple-touch-icon" sizes="60x60" href="/icon/apple-touch-icon-60x60.png">
  <link rel="apple-touch-icon" sizes="120x120" href="/icon/apple-touch-icon-120x120.png">
  <link rel="apple-touch-icon" sizes="76x76" href="/icon/apple-touch-icon-76x76.png">
  <link rel="apple-touch-icon" sizes="152x152" href="/icon/apple-touch-icon-152x152.png">
  <link rel="icon" type="image/png" href="/icon/favicon-196x196.png" sizes="196x196">
  <link rel="icon" type="image/png" href="/icon/favicon-160x160.png" sizes="160x160">
  <link rel="icon" type="image/png" href="/icon/favicon-96x96.png" sizes="96x96">
  <link rel="icon" type="image/png" href="/icon/favicon-16x16.png" sizes="16x16">
  <link rel="icon" type="image/png" href="/icon/favicon-32x32.png" sizes="32x32">
  <meta name="msapplication-TileColor" content="#2f83cd">
  <meta name="msapplication-TileImage" content="/icon/mstile-144x144.png">
  <!-- CSS -->
  <!-- build:css build/css/navy.css -->
  <link rel="stylesheet" href="/css/navy.css">
  <!-- endbuild -->
  <link href="https://fonts.googleapis.com/css?family=Lato:300,400,700" rel="stylesheet" type="text/css">
  <link rel="stylesheet" href="https://maxcdn.bootstrapcdn.com/font-awesome/4.3.0/css/font-awesome.min.css">
  <link rel="stylesheet" href="https://cdn.jsdelivr.net/docsearch.js/1/docsearch.min.css">
  <!-- RSS -->
  <link rel="alternate" href="/atom.xml" title="Metaverse Docs">
  <!-- Open Graph -->
  <meta name="description" content="IntroductionA multi-signature address is an address that is associated with more than one ECDSA private key. The simplest type is an m-of-n address - it is associated with n private keys, and sending">
<meta property="og:type" content="website">
<meta property="og:title" content="MST Multi-signature">
<meta property="og:url" content="https://docs.mvs.org/developers/da-multi-sig.html">
<meta property="og:site_name" content="Metaverse Docs">
<meta property="og:description" content="IntroductionA multi-signature address is an address that is associated with more than one ECDSA private key. The simplest type is an m-of-n address - it is associated with n private keys, and sending">
<meta property="og:locale" content="en">
<meta property="og:updated_time" content="2019-06-21T08:07:18.969Z">
<meta name="twitter:card" content="summary">
<meta name="twitter:title" content="MST Multi-signature">
<meta name="twitter:description" content="IntroductionA multi-signature address is an address that is associated with more than one ECDSA private key. The simplest type is an m-of-n address - it is associated with n private keys, and sending">
<meta name="twitter:site" content="mvs_org">
<meta property="fb:admins" content="100006665201854">
  <!-- Google Analytics -->
  
<script>
  (function(i,s,o,g,r,a,m){i['GoogleAnalyticsObject']=r;i[r]=i[r]||function(){
  (i[r].q=i[r].q||[]).push(arguments)},i[r].l=1*new Date();a=s.createElement(o),
  m=s.getElementsByTagName(o)[0];a.async=1;a.src=g;m.parentNode.insertBefore(a,m)
  })(window,document,'script','https://www.google-analytics.com/analytics.js','ga');

  ga('create', 'UA-99097230-2', 'auto');
  ga('send', 'pageview');
</script>

</head>

<body>
  <div id="container">
    <header id="header" class="wrapper">
  <div id="header-inner" class="inner">
    <h1 id="logo-wrap">
      <a href="/" id="logo">Hexo</a>
    </h1>
    <nav id="main-nav">
      <a href="/docs/" class="main-nav-link">Docs</a><a href="/api_v3/" class="main-nav-link">API v3</a><a href="/baas/" class="main-nav-link">BaaS</a><a href="/developers/" class="main-nav-link">Developers</a><a href="/faq/" class="main-nav-link">FAQ</a><a href="/news/" class="main-nav-link">Releases</a>
      <a href="https://github.com/mvs-org/metaverse" class="main-nav-link"><i class="fa fa-github-alt"></i></a>
      <div id="search-input-wrap">
        <div id="search-input-icon">
          <i class="fa fa-search"></i>
        </div>
        <input type="search" id="search-input" placeholder="Search...">
      </div>
    </nav>
    <div id="lang-select-wrap">
      <label id="lang-select-label"><i class="fa fa-globe"></i><span>English</span></label>
      <select id="lang-select" data-canonical="developers/da-multi-sig.html">
        
          <option value="en" selected>English</option>
        
          <option value="zh-cn">简体中文</option>
        
      </select>
    </div>
    <a id="mobile-nav-toggle">
      <span class="mobile-nav-toggle-bar"></span>
      <span class="mobile-nav-toggle-bar"></span>
      <span class="mobile-nav-toggle-bar"></span>
    </a>
  </div>
</header>

    <div id="content-wrap">
  <div id="content" class="wrapper">
    <div id="content-inner">
      <article class="article-container" itemscope itemtype="http://schema.org/Article">
        <div class="article-inner">
          <div class="article">
            <div class="inner">
              <header class="article-header">
                <h1 class="article-title" itemprop="name">MST Multi-signature</h1>
                <a href="https://github.com/mvs-org/docs-mvs-org/edit/master/source/developers/da-multi-sig.md" class="article-edit-link" title="Improve this doc"><i class="fa fa-pencil"></i></a>
              </header>
              <div class="article-content" itemprop="articleBody">
                <h2 id="Introduction" class="article-heading"><a href="#Introduction" class="headerlink" title="Introduction"></a>Introduction<a class="article-anchor" href="#Introduction" aria-hidden="true"></a></h2><p>A multi-signature address is an address that is associated with more than one ECDSA private key. The simplest type is an m-of-n address - it is associated with n private keys, and sending possession from this address requires signatures from at least m keys. A multi-signature transaction is one that sends possession from a multi-signature address.</p>
<p>For example：</p>
<blockquote>
<p>1-of-2: Husband and wife petty cash joint account — the signature of either spouse is sufficient to spend the funds.<br>2-of-2: Husband and wife savings account — both signatures are required to spend the funds, preventing one spouse from spending the money without the approval of the other.  </p>
</blockquote>
<h2 id="Use-Multi-signature" class="article-heading"><a href="#Use-Multi-signature" class="headerlink" title="Use Multi-signature"></a>Use Multi-signature<a class="article-anchor" href="#Use-Multi-signature" aria-hidden="true"></a></h2><ol>
<li>Every participator gets the public-key of an address by command <code>getpublickey</code> and let others known the public-key. The corresponding private-key will be used to signature multi-signature transaction later.  </li>
<li>Every participator creates a multi-signature address by command <code>getnewmultisig</code> with the public-key got in step 1 and same constraints(that means same <code>m</code>, <code>n</code> and <code>public-keys</code>). A multi-signature address is called <code>P2SH（Pay-to-Script-Hash）</code>, it starts with number <code>3</code>. The multi-signature addresses created by participators should be the same.  </li>
<li>One participator creates a multi-signature transaction by command <code>createmultisigtx</code> with the multi-signature addresses created in step 2. The content of the multi-signature transaction can be decoded by command  <code>decoderawtx</code>.  </li>
<li><code>m</code> participators signature the multi-signature transaction successively by command <code>signmultisigtx</code>. They signature and send the output to the next participator.  </li>
<li>After m participators signatured, broadcast the multi-signature transaction to Metaverse network by command <code>sendrawtx</code>.  </li>
</ol>
<h2 id="Commands-related-to-Multi-signature" class="article-heading"><a href="#Commands-related-to-Multi-signature" class="headerlink" title="Commands related to Multi-signature"></a>Commands related to Multi-signature<a class="article-anchor" href="#Commands-related-to-Multi-signature" aria-hidden="true"></a></h2><p>The following commands allow you to use multi-signature in Metaverse:</p>
<blockquote>
<p><a href="multisig.html#getpublickey">getpublickey</a><br><a href="multisig.html#getnewmultisig">getnewmultisig</a><br><a href="multisig.html#listmultisig">listmultisig</a><br><a href="multisig.html#deletemultisig">deletemultisig</a><br><a href="multisig.html#createmultisigtx">createmultisigtx</a><br><a href="multisig.html#signmultisigtx">signmultisigtx</a><br><a href="rawtx.html#sendrawtx">sendrawtx</a><br><a href="rawtx.html#decoderawtx">decoderawtx</a>  </p>
</blockquote>
<blockquote>
<p><a href="identity.html#registerdid">registerdid</a><br><a href="identity.html#didchangeaddress">didchangeaddress</a><br><a href="asset.html#transfercert">transfercert</a><br><a href="mit.html#transfermit">transfermit</a>  </p>
</blockquote>
<h2 id="Example" class="article-heading"><a href="#Example" class="headerlink" title="Example"></a>Example<a class="article-anchor" href="#Example" aria-hidden="true"></a></h2><p>The following example involves three accounts：<code>Alice</code>，<code>Bob</code> and <code>Cindy</code>. For more detail of the commands, please refer to <a href="/api_v3/multisig.html">API_v3_multisig</a>.</p>
<h3 id="1-Get-and-inform-public-key" class="article-heading"><a href="#1-Get-and-inform-public-key" class="headerlink" title="1. Get and inform public-key"></a>1. Get and inform public-key<a class="article-anchor" href="#1-Get-and-inform-public-key" aria-hidden="true"></a></h3><p>Every participator gets the public-key of an address by command <code>getpublickey</code> and let others known the public-key.<br><figure class="highlight plain"><table><tr><td class="code"><pre><span class="line">// Alice gets the public-key of an address of she.</span><br><span class="line">Command：</span><br><span class="line">$ ./mvs-cli getpublickey Alice A123456 &quot;MCJ6vpdCYsVD34XFC22fhqDLfHo7ZtnyM2&quot;</span><br><span class="line"></span><br><span class="line">Output：</span><br><span class="line">&#123;</span><br><span class="line">  &quot;address&quot; : &quot;MCJ6vpdCYsVD34XFC22fhqDLfHo7ZtnyM2&quot;,</span><br><span class="line">  &quot;public-key&quot; : &quot;03d29f0b96f332e50d6014cb91c334214ecb8caf2881a97e7d944bdf4e5fd6a39e&quot;</span><br><span class="line">&#125;</span><br><span class="line"></span><br><span class="line">// Bob gets the public-key of an address of he.</span><br><span class="line">Command：</span><br><span class="line">$ ./mvs-cli getpublickey Bob B123456 MHaKHUFwAdcszvQarCmn1Rkq2uRoPQjZwm</span><br><span class="line"></span><br><span class="line">Output：</span><br><span class="line">&#123;</span><br><span class="line">  &quot;address&quot; : &quot;MHaKHUFwAdcszvQarCmn1Rkq2uRoPQjZwm&quot;,</span><br><span class="line">  &quot;public-key&quot; : &quot;03f97e079ccae21e1ee65d5ee64e5c27d7d6ce9a867cec75e9736ad5f258329e02&quot;</span><br><span class="line">&#125;</span><br><span class="line"></span><br><span class="line">// Cindy gets the public-key of an address of she.</span><br><span class="line">Command：</span><br><span class="line">$ ./mvs-cli getpublickey Cindy C123456 MKXa7mtzNaGCEF9vM2sUmmTS93iDpHYd4m</span><br><span class="line"></span><br><span class="line">Output：</span><br><span class="line">&#123;</span><br><span class="line">  &quot;address&quot; : &quot;MKXa7mtzNaGCEF9vM2sUmmTS93iDpHYd4m&quot;,</span><br><span class="line">  &quot;public-key&quot; : &quot;02729cae0c16009f44440f306b76fafb7a7d2503741a619c15b41ff927c1afd6b9&quot;</span><br><span class="line">&#125;</span><br></pre></td></tr></table></figure></p>
<h3 id="2-Create-a-multi-signature-address" class="article-heading"><a href="#2-Create-a-multi-signature-address" class="headerlink" title="2. Create a multi-signature address"></a>2. Create a multi-signature address<a class="article-anchor" href="#2-Create-a-multi-signature-address" aria-hidden="true"></a></h3><p>Every participator creates a same multi-signature address by command <code>getnewmultisig</code> with the public-key got in step 1 and same constraints(that means same <code>m</code>, <code>n</code> and <code>public-keys</code>). </p>
<p>For example, every participator creates a same multi-signature address by command <code>getnewmultisig</code> with option option <code>m</code> setted to 2, option <code>n</code> setted to 3, option <code>-s</code> for self public-key and options <code>-k</code> for other’s public-keys. Finally the get the same multi-signature address <code>39hh1NY9xyTKzawD8zFKXgXa7XBwqck6BR</code>.<br><figure class="highlight plain"><table><tr><td class="code"><pre><span class="line">// Alice creates a multi-signature address</span><br><span class="line">Command：</span><br><span class="line">$ ./mvs-cli getnewmultisig Alice A123456 -m 2 -n 3 -s &quot;03d29f0b96f332e50d6014cb91c334214ecb8caf2881a97e7d944bdf4e5fd6a39e&quot; -k &quot;03f97e079ccae21e1ee65d5ee64e5c27d7d6ce9a867cec75e9736ad5f258329e02&quot; -k &quot;02729cae0c16009f44440f306b76fafb7a7d2503741a619c15b41ff927c1afd6b9&quot; -d &quot;multisig test&quot;</span><br><span class="line"></span><br><span class="line">Output：</span><br><span class="line">&#123;</span><br><span class="line">  &quot;address&quot; : &quot;39hh1NY9xyTKzawD8zFKXgXa7XBwqck6BR&quot;,</span><br><span class="line">  &quot;description&quot; : &quot;multisig test&quot;,</span><br><span class="line">  &quot;index&quot; : 1,</span><br><span class="line">  &quot;m&quot; : 2,</span><br><span class="line">  &quot;multisig-script&quot; : &quot;2 [ 02729cae0c16009f44440f306b76fafb7a7d2503741a619c15b41ff927c1afd6b9 ]  [ 03d29f0b96f332e50d6014cb91c334214ecb8caf2881a97e7d944bdf4e5fd6a39e ]  [ 03f97e079ccae21e1ee65d5ee64e5c27d7d6ce9a867cec75e9736ad5f258329e02 ] 3 checkmultisig&quot;,</span><br><span class="line">  &quot;n&quot; : 3,</span><br><span class="line">  &quot;public-keys&quot; : </span><br><span class="line">  [</span><br><span class="line">    &quot;02729cae0c16009f44440f306b76fafb7a7d2503741a619c15b41ff927c1afd6b9&quot;,</span><br><span class="line">    &quot;03d29f0b96f332e50d6014cb91c334214ecb8caf2881a97e7d944bdf4e5fd6a39e&quot;,</span><br><span class="line">    &quot;03f97e079ccae21e1ee65d5ee64e5c27d7d6ce9a867cec75e9736ad5f258329e02&quot;</span><br><span class="line">  ],</span><br><span class="line">  &quot;self-publickey&quot; : &quot;03d29f0b96f332e50d6014cb91c334214ecb8caf2881a97e7d944bdf4e5fd6a39e&quot;</span><br><span class="line">&#125;</span><br></pre></td></tr></table></figure></p>
<figure class="highlight plain"><table><tr><td class="code"><pre><span class="line">// Bob creates a multi-signature address</span><br><span class="line">Command：</span><br><span class="line">$ ./mvs-cli getnewmultisig Bob B123456 -m 2 -n 3 -s &quot;03f97e079ccae21e1ee65d5ee64e5c27d7d6ce9a867cec75e9736ad5f258329e02&quot; -k &quot;03d29f0b96f332e50d6014cb91c334214ecb8caf2881a97e7d944bdf4e5fd6a39e&quot; -k &quot;02729cae0c16009f44440f306b76fafb7a7d2503741a619c15b41ff927c1afd6b9&quot; -d &quot;multisig test&quot;</span><br><span class="line"></span><br><span class="line">Output：</span><br><span class="line">&#123;</span><br><span class="line">  &quot;address&quot; : &quot;39hh1NY9xyTKzawD8zFKXgXa7XBwqck6BR&quot;,</span><br><span class="line">  &quot;description&quot; : &quot;multisig test&quot;,</span><br><span class="line">  &quot;index&quot; : 1,</span><br><span class="line">  &quot;m&quot; : 2,</span><br><span class="line">  &quot;multisig-script&quot; : &quot;2 [ 02729cae0c16009f44440f306b76fafb7a7d2503741a619c15b41ff927c1afd6b9 ]  [ 03d29f0b96f332e50d6014cb91c334214ecb8caf2881a97e7d944bdf4e5fd6a39e ]  [ 03f97e079ccae21e1ee65d5ee64e5c27d7d6ce9a867cec75e9736ad5f258329e02 ] 3 checkmultisig&quot;,</span><br><span class="line">  &quot;n&quot; : 3,</span><br><span class="line">  &quot;public-keys&quot; : </span><br><span class="line">  [</span><br><span class="line">    &quot;02729cae0c16009f44440f306b76fafb7a7d2503741a619c15b41ff927c1afd6b9&quot;,</span><br><span class="line">    &quot;03d29f0b96f332e50d6014cb91c334214ecb8caf2881a97e7d944bdf4e5fd6a39e&quot;,</span><br><span class="line">    &quot;03f97e079ccae21e1ee65d5ee64e5c27d7d6ce9a867cec75e9736ad5f258329e02&quot;</span><br><span class="line">  ],</span><br><span class="line">  &quot;self-publickey&quot; : &quot;03f97e079ccae21e1ee65d5ee64e5c27d7d6ce9a867cec75e9736ad5f258329e02&quot;</span><br><span class="line">&#125;</span><br></pre></td></tr></table></figure>
<figure class="highlight plain"><table><tr><td class="code"><pre><span class="line">// Cindy creates a multi-signature address</span><br><span class="line">Command：</span><br><span class="line">$ ./mvs-cli getnewmultisig Cindy C123456 -m 2 -n 3 -s &quot;02729cae0c16009f44440f306b76fafb7a7d2503741a619c15b41ff927c1afd6b9&quot; -k &quot;03f97e079ccae21e1ee65d5ee64e5c27d7d6ce9a867cec75e9736ad5f258329e02&quot; -k &quot;03d29f0b96f332e50d6014cb91c334214ecb8caf2881a97e7d944bdf4e5fd6a39e&quot; -d &quot;multisig test&quot;</span><br><span class="line"></span><br><span class="line">Output：</span><br><span class="line">&#123;</span><br><span class="line">   &quot;address&quot; : &quot;39hh1NY9xyTKzawD8zFKXgXa7XBwqck6BR&quot;,</span><br><span class="line">   &quot;description&quot; : &quot;&quot;,</span><br><span class="line">   &quot;index&quot; : 1,</span><br><span class="line">   &quot;m&quot; : 2,</span><br><span class="line">   &quot;multisig-script&quot; : &quot;2 [ 02729cae0c16009f44440f306b76fafb7a7d2503741a619c15b41ff927c1afd6b9 ]  [ 03d29f0b96f332e50d6014cb91c334214ecb8caf2881a97e7d944bdf4e5fd6a39e ]  [ 03f97e079ccae21e1ee65d5ee64e5c27d7d6ce9a867cec75e9736ad5f258329e02 ] 3 checkmultisig&quot;,</span><br><span class="line">   &quot;n&quot; : 3,</span><br><span class="line">   &quot;public-keys&quot; : </span><br><span class="line">   [</span><br><span class="line">     &quot;02729cae0c16009f44440f306b76fafb7a7d2503741a619c15b41ff927c1afd6b9&quot;,</span><br><span class="line">     &quot;03d29f0b96f332e50d6014cb91c334214ecb8caf2881a97e7d944bdf4e5fd6a39e&quot;,</span><br><span class="line">     &quot;03f97e079ccae21e1ee65d5ee64e5c27d7d6ce9a867cec75e9736ad5f258329e02&quot;</span><br><span class="line">   ],</span><br><span class="line">   &quot;self-publickey&quot; : &quot;02729cae0c16009f44440f306b76fafb7a7d2503741a619c15b41ff927c1afd6b9&quot;</span><br><span class="line">&#125;</span><br></pre></td></tr></table></figure>
<h3 id="3-Send-ETP-to-the-multi-signature-address" class="article-heading"><a href="#3-Send-ETP-to-the-multi-signature-address" class="headerlink" title="3. Send ETP to the multi-signature address"></a>3. Send ETP to the multi-signature address<a class="article-anchor" href="#3-Send-ETP-to-the-multi-signature-address" aria-hidden="true"></a></h3><p>Participators send ETP to the multi-signature address by command <code>send</code> or <code>sendfrom</code> accord to their contract.</p>
<h3 id="4-Create-a-multi-signature-transaction" class="article-heading"><a href="#4-Create-a-multi-signature-transaction" class="headerlink" title="4. Create a multi-signature transaction"></a>4. Create a multi-signature transaction<a class="article-anchor" href="#4-Create-a-multi-signature-transaction" aria-hidden="true"></a></h3><p>One participator creates a multi-signature transaction to spend ETP on the multi-signature address by command  <code>createmultisigtx</code>. The detail of the transaction can be displayed by command <code>decoderawtx</code>.</p>
<p>For example, <code>Cindy</code> creates a multi-signature transaction to send ETP from the multi-signature address to address <code>MHaKHUFwAdcszvQarCmn1Rkq2uRoPQjZwm</code>.<br><figure class="highlight plain"><table><tr><td class="code"><pre><span class="line">Command：</span><br><span class="line">$ ./mvs-cli createmultisigtx Cindy C123456 39hh1NY9xyTKzawD8zFKXgXa7XBwqck6BR MHaKHUFwAdcszvQarCmn1Rkq2uRoPQjZwm 3344</span><br><span class="line"></span><br><span class="line">Output：</span><br><span class="line">02000000016453713104d144387553bcb0fa457f40d2dc5fb916bd9e2256835a4b6de48d4c00000000b500483045022100cbfdda943648344dc03fd92a905072082af93dfd4f166e3d1bb258e3437069790220321ee22c6a2543392909e21cd347d009a6d32173c23700424b45b4592d4075e3014c69522102729cae0c16009f44440f306b76fafb7a7d2503741a619c15b41ff927c1afd6b92103d29f0b96f332e50d6014cb91c334214ecb8caf2881a97e7d944bdf4e5fd6a39e2103f97e079ccae21e1ee65d5ee64e5c27d7d6ce9a867cec75e9736ad5f258329e0253aeffffffff02100d0000000000001976a9146a20e940e8d7be0a49c598e91fa79c8b36e5353588ac0100000000000000d0fb01000000000017a91457e1a19e5ee4c0065f8fd76b0351fa145e44435a87010000000000000000000000</span><br></pre></td></tr></table></figure></p>
<p>Display the detail of the multi-signature transaction by command <code>decoderawtx</code>.<br><figure class="highlight plain"><table><tr><td class="code"><pre><span class="line">Command：</span><br><span class="line">$ ./mvs-cli decoderawtx &quot;02000000016453713104d144387553bcb0fa457f40d2dc5fb916bd9e2256835a4b6de48d4c00000000b500483045022100cbfdda943648344dc03fd92a905072082af93dfd4f166e3d1bb258e3437069790220321ee22c6a2543392909e21cd347d009a6d32173c23700424b45b4592d4075e3014c69522102729cae0c16009f44440f306b76fafb7a7d2503741a619c15b41ff927c1afd6b92103d29f0b96f332e50d6014cb91c334214ecb8caf2881a97e7d944bdf4e5fd6a39e2103f97e079ccae21e1ee65d5ee64e5c27d7d6ce9a867cec75e9736ad5f258329e0253aeffffffff02100d0000000000001976a9146a20e940e8d7be0a49c598e91fa79c8b36e5353588ac0100000000000000d0fb01000000000017a91457e1a19e5ee4c0065f8fd76b0351fa145e44435a87010000000000000000000000&quot;</span><br><span class="line"></span><br><span class="line">Output：</span><br><span class="line">&#123;</span><br><span class="line">  &quot;transaction&quot; : </span><br><span class="line">  &#123;</span><br><span class="line">    &quot;hash&quot; : &quot;69c044be3c137f0bb34908be257acbb8157877bc57976a25881ed942384a9a61&quot;,</span><br><span class="line">    &quot;inputs&quot; : </span><br><span class="line">    [</span><br><span class="line">      &#123;</span><br><span class="line">        &quot;address&quot; : &quot;39hh1NY9xyTKzawD8zFKXgXa7XBwqck6BR&quot;,</span><br><span class="line">        &quot;previous_output&quot; : </span><br><span class="line">        &#123;</span><br><span class="line">          &quot;hash&quot; : &quot;4c8de46d4b5a8356229ebd16b95fdcd2407f45fab0bc53753844d10431715364&quot;,</span><br><span class="line">          &quot;index&quot; : 0</span><br><span class="line">        &#125;,</span><br><span class="line">        &quot;script&quot; : &quot;zero [ 3045022100cbfdda943648344dc03fd92a905072082af93dfd4f166e3d1bb258e3437069790220321ee22c6a2543392909e21cd347d009a6d32173c23700424b45b4592d4075e301 ] [ 522102729cae0c16009f44440f306b76fafb7a7d2503741a619c15b41ff927c1afd6b92103d29f0b96f332e50d6014cb91c334214ecb8caf2881a97e7d944bdf4e5fd6a39e2103f97e079ccae21e1ee65d5ee64e5c27d7d6ce9a867cec75e9736ad5f258329e0253ae ]&quot;,</span><br><span class="line">        &quot;sequence&quot; : 4294967295</span><br><span class="line">      &#125;</span><br><span class="line">    ],</span><br><span class="line">    &quot;lock_time&quot; : &quot;0&quot;,</span><br><span class="line">    &quot;outputs&quot; : </span><br><span class="line">    [</span><br><span class="line">      &#123;</span><br><span class="line">        &quot;address&quot; : &quot;MHaKHUFwAdcszvQarCmn1Rkq2uRoPQjZwm&quot;,</span><br><span class="line">        &quot;attachment&quot; : </span><br><span class="line">        &#123;</span><br><span class="line">          &quot;type&quot; : &quot;etp&quot;</span><br><span class="line">        &#125;,</span><br><span class="line">        &quot;index&quot; : 0,</span><br><span class="line">        &quot;locked_height_range&quot; : 0,</span><br><span class="line">        &quot;script&quot; : &quot;dup hash160 [ 6a20e940e8d7be0a49c598e91fa79c8b36e53535 ] equalverify checksig&quot;,</span><br><span class="line">        &quot;value&quot; : 3344</span><br><span class="line">      &#125;,</span><br><span class="line">      &#123;</span><br><span class="line">        &quot;address&quot; : &quot;39hh1NY9xyTKzawD8zFKXgXa7XBwqck6BR&quot;,</span><br><span class="line">        &quot;attachment&quot; : </span><br><span class="line">        &#123;</span><br><span class="line">          &quot;type&quot; : &quot;etp&quot;</span><br><span class="line">        &#125;,</span><br><span class="line">        &quot;index&quot; : 1,</span><br><span class="line">        &quot;locked_height_range&quot; : 0,</span><br><span class="line">        &quot;script&quot; : &quot;hash160 [ 57e1a19e5ee4c0065f8fd76b0351fa145e44435a ] equal&quot;,</span><br><span class="line">        &quot;value&quot; : 130000</span><br><span class="line">      &#125;</span><br><span class="line">    ],</span><br><span class="line">    &quot;version&quot; : &quot;2&quot;</span><br><span class="line">  &#125;</span><br><span class="line">&#125;</span><br></pre></td></tr></table></figure></p>
<p>The format of field <code>transaction:inputs:script</code> in output is <code>[zero signature-1 signature-2 ... signature-m endorsement]</code>. <code>Cindy</code>‘s signature is already included in field <code>transaction:inputs:script</code>. </p>
<h3 id="5-Ohter-participators-signature" class="article-heading"><a href="#5-Ohter-participators-signature" class="headerlink" title="5. Ohter participators signature"></a>5. Ohter participators signature<a class="article-anchor" href="#5-Ohter-participators-signature" aria-hidden="true"></a></h3><p> Other participators signature the multi-signature transaction successively by command <code>signmultisigtx</code>. They signature and send the output to next participator.  </p>
<p><code>Alice</code> gets the raw transaction from <code>Cindy</code> and signatures.<br><figure class="highlight plain"><table><tr><td class="code"><pre><span class="line">Command：</span><br><span class="line">$ ./mvs-cli signmultisigtx Alice A123456 &quot;02000000016453713104d144387553bcb0fa457f40d2dc5fb916bd9e2256835a4b6de48d4c00000000b500483045022100cbfdda943648344dc03fd92a905072082af93dfd4f166e3d1bb258e3437069790220321ee22c6a2543392909e21cd347d009a6d32173c23700424b45b4592d4075e3014c69522102729cae0c16009f44440f306b76fafb7a7d2503741a619c15b41ff927c1afd6b92103d29f0b96f332e50d6014cb91c334214ecb8caf2881a97e7d944bdf4e5fd6a39e2103f97e079ccae21e1ee65d5ee64e5c27d7d6ce9a867cec75e9736ad5f258329e0253aeffffffff02100d0000000000001976a9146a20e940e8d7be0a49c598e91fa79c8b36e5353588ac0100000000000000d0fb01000000000017a91457e1a19e5ee4c0065f8fd76b0351fa145e44435a87010000000000000000000000&quot;</span><br><span class="line"></span><br><span class="line">Output：</span><br><span class="line">02000000016453713104d144387553bcb0fa457f40d2dc5fb916bd9e2256835a4b6de48d4c00000000fdfd0000483045022100cbfdda943648344dc03fd92a905072082af93dfd4f166e3d1bb258e3437069790220321ee22c6a2543392909e21cd347d009a6d32173c23700424b45b4592d4075e3014730440220018b6a113d89de18b6c3c7090758cf9e4ca24e7762a2796b872bf6d2d1015b96022046b4518aa9451e617dff9467db7fe0c0d45811d0884faed51e343fec2c4579ff014c69522102729cae0c16009f44440f306b76fafb7a7d2503741a619c15b41ff927c1afd6b92103d29f0b96f332e50d6014cb91c334214ecb8caf2881a97e7d944bdf4e5fd6a39e2103f97e079ccae21e1ee65d5ee64e5c27d7d6ce9a867cec75e9736ad5f258329e0253aeffffffff02100d0000000000001976a9146a20e940e8d7be0a49c598e91fa79c8b36e5353588ac0100000000000000d0fb01000000000017a91457e1a19e5ee4c0065f8fd76b0351fa145e44435a87010000000000000000000000</span><br></pre></td></tr></table></figure></p>
<p>Display the detail of the transaction by command <code>decoderawtx</code>.<br><figure class="highlight plain"><table><tr><td class="code"><pre><span class="line">Command：</span><br><span class="line">$ ./mvs-cli decoderawtx &quot;02000000016453713104d144387553bcb0fa457f40d2dc5fb916bd9e2256835a4b6de48d4c00000000fdfd0000483045022100cbfdda943648344dc03fd92a905072082af93dfd4f166e3d1bb258e3437069790220321ee22c6a2543392909e21cd347d009a6d32173c23700424b45b4592d4075e3014730440220018b6a113d89de18b6c3c7090758cf9e4ca24e7762a2796b872bf6d2d1015b96022046b4518aa9451e617dff9467db7fe0c0d45811d0884faed51e343fec2c4579ff014c69522102729cae0c16009f44440f306b76fafb7a7d2503741a619c15b41ff927c1afd6b92103d29f0b96f332e50d6014cb91c334214ecb8caf2881a97e7d944bdf4e5fd6a39e2103f97e079ccae21e1ee65d5ee64e5c27d7d6ce9a867cec75e9736ad5f258329e0253aeffffffff02100d0000000000001976a9146a20e940e8d7be0a49c598e91fa79c8b36e5353588ac0100000000000000d0fb01000000000017a91457e1a19e5ee4c0065f8fd76b0351fa145e44435a87010000000000000000000000&quot;</span><br><span class="line"></span><br><span class="line">Output：</span><br><span class="line">&#123;</span><br><span class="line">  &quot;transaction&quot; : </span><br><span class="line">  &#123;</span><br><span class="line">    &quot;hash&quot; : &quot;d791b2e0ca6eeb9b5521766b051d54f3659c775dceb39c478ebd0a549bb6d2b4&quot;,</span><br><span class="line">    &quot;inputs&quot; : </span><br><span class="line">    [</span><br><span class="line">      &#123;</span><br><span class="line">        &quot;address&quot; : &quot;39hh1NY9xyTKzawD8zFKXgXa7XBwqck6BR&quot;,</span><br><span class="line">        &quot;previous_output&quot; : </span><br><span class="line">        &#123;</span><br><span class="line">          &quot;hash&quot; : &quot;4c8de46d4b5a8356229ebd16b95fdcd2407f45fab0bc53753844d10431715364&quot;,</span><br><span class="line">          &quot;index&quot; : 0</span><br><span class="line">        &#125;,</span><br><span class="line">        &quot;script&quot; : &quot;zero [ 3045022100cbfdda943648344dc03fd92a905072082af93dfd4f166e3d1bb258e3437069790220321ee22c6a2543392909e21cd347d009a6d32173c23700424b45b4592d4075e301 ] [ 30440220018b6a113d89de18b6c3c7090758cf9e4ca24e7762a2796b872bf6d2d1015b96022046b4518aa9451e617dff9467db7fe0c0d45811d0884faed51e343fec2c4579ff01 ] [ 522102729cae0c16009f44440f306b76fafb7a7d2503741a619c15b41ff927c1afd6b92103d29f0b96f332e50d6014cb91c334214ecb8caf2881a97e7d944bdf4e5fd6a39e2103f97e079ccae21e1ee65d5ee64e5c27d7d6ce9a867cec75e9736ad5f258329e0253ae ]&quot;,</span><br><span class="line">        &quot;sequence&quot; : 4294967295</span><br><span class="line">      &#125;</span><br><span class="line">    ],</span><br><span class="line">    &quot;lock_time&quot; : &quot;0&quot;,</span><br><span class="line">    &quot;outputs&quot; : </span><br><span class="line">    [</span><br><span class="line">      &#123;</span><br><span class="line">        &quot;address&quot; : &quot;MHaKHUFwAdcszvQarCmn1Rkq2uRoPQjZwm&quot;,</span><br><span class="line">        &quot;attachment&quot; : </span><br><span class="line">        &#123;</span><br><span class="line">          &quot;type&quot; : &quot;etp&quot;</span><br><span class="line">        &#125;,</span><br><span class="line">        &quot;index&quot; : 0,</span><br><span class="line">        &quot;locked_height_range&quot; : 0,</span><br><span class="line">        &quot;script&quot; : &quot;dup hash160 [ 6a20e940e8d7be0a49c598e91fa79c8b36e53535 ] equalverify checksig&quot;,</span><br><span class="line">        &quot;value&quot; : 3344</span><br><span class="line">      &#125;,</span><br><span class="line">      &#123;</span><br><span class="line">        &quot;address&quot; : &quot;39hh1NY9xyTKzawD8zFKXgXa7XBwqck6BR&quot;,</span><br><span class="line">        &quot;attachment&quot; : </span><br><span class="line">        &#123;</span><br><span class="line">          &quot;type&quot; : &quot;etp&quot;</span><br><span class="line">        &#125;,</span><br><span class="line">        &quot;index&quot; : 1,</span><br><span class="line">        &quot;locked_height_range&quot; : 0,</span><br><span class="line">        &quot;script&quot; : &quot;hash160 [ 57e1a19e5ee4c0065f8fd76b0351fa145e44435a ] equal&quot;,</span><br><span class="line">        &quot;value&quot; : 130000</span><br><span class="line">      &#125;</span><br><span class="line">    ],</span><br><span class="line">    &quot;version&quot; : &quot;2&quot;</span><br><span class="line">  &#125;</span><br><span class="line">&#125;</span><br></pre></td></tr></table></figure></p>
<p>Now, <code>Alice</code>‘s signature is already included in field <code>transaction:inputs:script</code> too. </p>
<h3 id="6-Broadcast-the-multi-signature-transaction" class="article-heading"><a href="#6-Broadcast-the-multi-signature-transaction" class="headerlink" title="6. Broadcast the multi-signature transaction"></a>6. Broadcast the multi-signature transaction<a class="article-anchor" href="#6-Broadcast-the-multi-signature-transaction" aria-hidden="true"></a></h3><p>After <code>Alice</code> and <code>Cindy</code> signatured, <code>Alice</code> broadcasts the multi-signature transaction to Metaverse network.<br><figure class="highlight plain"><table><tr><td class="code"><pre><span class="line">$ ./mvs-cli sendrawtx &quot;02000000016453713104d144387553bcb0fa457f40d2dc5fb916bd9e2256835a4b6de48d4c00000000fdfd0000483045022100cbfdda943648344dc03fd92a905072082af93dfd4f166e3d1bb258e3437069790220321ee22c6a2543392909e21cd347d009a6d32173c23700424b45b4592d4075e3014730440220018b6a113d89de18b6c3c7090758cf9e4ca24e7762a2796b872bf6d2d1015b96022046b4518aa9451e617dff9467db7fe0c0d45811d0884faed51e343fec2c4579ff014c69522102729cae0c16009f44440f306b76fafb7a7d2503741a619c15b41ff927c1afd6b92103d29f0b96f332e50d6014cb91c334214ecb8caf2881a97e7d944bdf4e5fd6a39e2103f97e079ccae21e1ee65d5ee64e5c27d7d6ce9a867cec75e9736ad5f258329e0253aeffffffff02100d0000000000001976a9146a20e940e8d7be0a49c598e91fa79c8b36e5353588ac0100000000000000d0fb01000000000017a91457e1a19e5ee4c0065f8fd76b0351fa145e44435a87010000000000000000000000&quot;</span><br></pre></td></tr></table></figure></p>

              </div>
              <footer class="article-footer">
                <time class="article-footer-updated" datetime="2019-06-21T08:07:18.969Z" itemprop="dateModified">Last updated: 2019-06-21</time>
                <a href="da-attenuation.html" class="article-footer-prev" title="MST Conditional Offering"><i class="fa fa-chevron-left"></i><span>Prev</span></a><a href="da-certification.html" class="article-footer-next" title="MST Domain-name&Certification"><span>Next</span><i class="fa fa-chevron-right"></i></a>
              </footer>
              
<section id="comments">
  <div id="disqus_thread"></div>
</section>
<script>
  var disqus_shortname = 'docs-mvs-org';
  var disqus_url = 'https://docs.mvs.org/developers/da-multi-sig.html';
  var disqus_title = "MST Multi-signature";
  var disqus_config = function(){
    this.language = 'en';
  };
  (function(){
    var dsq = document.createElement('script'); dsq.type = 'text/javascript'; dsq.async = true;
    dsq.src = 'https://go.disqus.com/embed.js';
    (document.getElementsByTagName('head')[0] || document.getElementsByTagName('body')[0]).appendChild(dsq);
  })();
</script>

            </div>
          </div>
          <aside id="article-toc" role="navigation">
            <div id="article-toc-inner">
              <strong class="sidebar-title">Contents</strong>
              <ol class="toc"><li class="toc-item toc-level-2"><a class="toc-link" href="#Introduction"><span class="toc-text">Introduction</span></a></li><li class="toc-item toc-level-2"><a class="toc-link" href="#Use-Multi-signature"><span class="toc-text">Use Multi-signature</span></a></li><li class="toc-item toc-level-2"><a class="toc-link" href="#Commands-related-to-Multi-signature"><span class="toc-text">Commands related to Multi-signature</span></a></li><li class="toc-item toc-level-2"><a class="toc-link" href="#Example"><span class="toc-text">Example</span></a><ol class="toc-child"><li class="toc-item toc-level-3"><a class="toc-link" href="#1-Get-and-inform-public-key"><span class="toc-text">1. Get and inform public-key</span></a></li><li class="toc-item toc-level-3"><a class="toc-link" href="#2-Create-a-multi-signature-address"><span class="toc-text">2. Create a multi-signature address</span></a></li><li class="toc-item toc-level-3"><a class="toc-link" href="#3-Send-ETP-to-the-multi-signature-address"><span class="toc-text">3. Send ETP to the multi-signature address</span></a></li><li class="toc-item toc-level-3"><a class="toc-link" href="#4-Create-a-multi-signature-transaction"><span class="toc-text">4. Create a multi-signature transaction</span></a></li><li class="toc-item toc-level-3"><a class="toc-link" href="#5-Ohter-participators-signature"><span class="toc-text">5. Ohter participators signature</span></a></li><li class="toc-item toc-level-3"><a class="toc-link" href="#6-Broadcast-the-multi-signature-transaction"><span class="toc-text">6. Broadcast the multi-signature transaction</span></a></li></ol></li></ol>
              <a href="#" id="article-toc-top">Back to Top</a>
            </div>
          </aside>
        </div>
      </article>
      <aside id="sidebar" role="navigation">
  <div class="inner">
    <strong class="sidebar-title">Developers Overview</strong><a href="index.html" class="sidebar-link">Introduction</a><a href="mvs-whitepaper.html" class="sidebar-link">Brief MVS whitepaper</a><a href="mvs-avatar-whitepaper.html" class="sidebar-link">Brief Avatar whitepaper</a><a href="build-mvs.html" class="sidebar-link">Build MVS Full Node</a><strong class="sidebar-title">Digital Asset (MST)</strong><a href="da-index.html" class="sidebar-link">Introduction</a><a href="da-issue.html" class="sidebar-link">MST Issuance</a><a href="da-secondary-issue.html" class="sidebar-link">MST Secondary Issuance</a><a href="da-attenuation.html" class="sidebar-link">MST Conditional Offering</a><a href="da-multi-sig.html" class="sidebar-link current">MST Multi-signature</a><a href="da-certification.html" class="sidebar-link">MST Domain-name&Certification</a><a href="da-burn.html" class="sidebar-link">MST Burn</a><a href="da-programmable.html" class="sidebar-link">Programmable MST</a><strong class="sidebar-title">Digital Asset (MIT)</strong><a href="mit-index.html" class="sidebar-link">MIT introduction</a><a href="mit-register.html" class="sidebar-link">MIT register</a><a href="mit-transfer.html" class="sidebar-link">MIT transfer</a><a href="mit-query.html" class="sidebar-link">MIT query</a><strong class="sidebar-title">Digital Identity (Avatar)</strong><a href="di-index.html" class="sidebar-link">DID introduction</a><a href="di-register.html" class="sidebar-link">DID register</a><a href="di-transfer.html" class="sidebar-link">DID transfer</a><a href="di-query.html" class="sidebar-link">DID query</a><a href="di-send.html" class="sidebar-link">DID send etp or asset</a><strong class="sidebar-title">Tech-Guide</strong><a href="account-model.html" class="sidebar-link">Account model</a><a href="consensus-and-mining.html" class="sidebar-link">Consensus and mining</a><a href="database.html" class="sidebar-link">Database</a><a href="httpserver.html" class="sidebar-link">HttpServer</a><a href="p2p-network.html" class="sidebar-link">P2P network</a><a href="mvs-transaction-format-and-signing.html" class="sidebar-link">Tx format and signing</a><a href="utxo-and-script.html" class="sidebar-link">UTXO and script</a><a href="utxo-limitation.html" class="sidebar-link">UTXO limitation</a><a href="cross-chain.html" class="sidebar-link">Cross chain swap</a><a href="mpc1-transaction-updation.html" class="sidebar-link">MPC1 transaction updation</a><a href="plugin-cli.html" class="sidebar-link">Plugin CLI</a>
  </div>
</aside>
    </div>
  </div>
</div>

    <footer id="footer" class="wrapper">
  <div class="inner">
    <div id="footer-copyright">
      &copy; 2020 <a href="https://github.com/mvs-org/metaverse/graphs/contributors" target="_blank">MVS Core Developers</a><br>
      Documentation licensed under <a href="http://creativecommons.org/licenses/by/4.0/" target="_blank">CC BY 4.0</a>.
    </div>
    <div id="footer-links">
      <a href="https://twitter.com/mvs_org" class="footer-link" target="_blank"><i class="fa fa-twitter"></i></a>
      <a href="https://github.com/mvs-org/metaverse" class="footer-link" target="_blank"><i class="fa fa-github-alt"></i></a>
    </div>
  </div>
</footer>

  </div>
  <div id="mobile-nav-dimmer"></div>
  <nav id="mobile-nav">
  <div id="mobile-nav-inner">
    <ul id="mobile-nav-list">
      <a href="/docs/" class="mobile-nav-link">Docs</a><a href="/api_v3/" class="mobile-nav-link">API v3</a><a href="/baas/" class="mobile-nav-link">BaaS</a><a href="/developers/" class="mobile-nav-link">Developers</a><a href="/faq/" class="mobile-nav-link">FAQ</a><a href="/news/" class="mobile-nav-link">Releases</a>
      <li class="mobile-nav-item">
        <a href="https://github.com/mvs-org/metaverse" class="mobile-nav-link" rel="external" target="_blank">GitHub</a>
      </li>
    </ul>
    
      <strong class="mobile-nav-title">Developers Overview</strong><a href="index.html" class="mobile-nav-link">Introduction</a><a href="mvs-whitepaper.html" class="mobile-nav-link">Brief MVS whitepaper</a><a href="mvs-avatar-whitepaper.html" class="mobile-nav-link">Brief Avatar whitepaper</a><a href="build-mvs.html" class="mobile-nav-link">Build MVS Full Node</a><strong class="mobile-nav-title">Digital Asset (MST)</strong><a href="da-index.html" class="mobile-nav-link">Introduction</a><a href="da-issue.html" class="mobile-nav-link">MST Issuance</a><a href="da-secondary-issue.html" class="mobile-nav-link">MST Secondary Issuance</a><a href="da-attenuation.html" class="mobile-nav-link">MST Conditional Offering</a><a href="da-multi-sig.html" class="mobile-nav-link current">MST Multi-signature</a><a href="da-certification.html" class="mobile-nav-link">MST Domain-name&Certification</a><a href="da-burn.html" class="mobile-nav-link">MST Burn</a><a href="da-programmable.html" class="mobile-nav-link">Programmable MST</a><strong class="mobile-nav-title">Digital Asset (MIT)</strong><a href="mit-index.html" class="mobile-nav-link">MIT introduction</a><a href="mit-register.html" class="mobile-nav-link">MIT register</a><a href="mit-transfer.html" class="mobile-nav-link">MIT transfer</a><a href="mit-query.html" class="mobile-nav-link">MIT query</a><strong class="mobile-nav-title">Digital Identity (Avatar)</strong><a href="di-index.html" class="mobile-nav-link">DID introduction</a><a href="di-register.html" class="mobile-nav-link">DID register</a><a href="di-transfer.html" class="mobile-nav-link">DID transfer</a><a href="di-query.html" class="mobile-nav-link">DID query</a><a href="di-send.html" class="mobile-nav-link">DID send etp or asset</a><strong class="mobile-nav-title">Tech-Guide</strong><a href="account-model.html" class="mobile-nav-link">Account model</a><a href="consensus-and-mining.html" class="mobile-nav-link">Consensus and mining</a><a href="database.html" class="mobile-nav-link">Database</a><a href="httpserver.html" class="mobile-nav-link">HttpServer</a><a href="p2p-network.html" class="mobile-nav-link">P2P network</a><a href="mvs-transaction-format-and-signing.html" class="mobile-nav-link">Tx format and signing</a><a href="utxo-and-script.html" class="mobile-nav-link">UTXO and script</a><a href="utxo-limitation.html" class="mobile-nav-link">UTXO limitation</a><a href="cross-chain.html" class="mobile-nav-link">Cross chain swap</a><a href="mpc1-transaction-updation.html" class="mobile-nav-link">MPC1 transaction updation</a><a href="plugin-cli.html" class="mobile-nav-link">Plugin CLI</a>
    
  </div>
  <div id="mobile-lang-select-wrap">
    <span id="mobile-lang-select-label"><i class="fa fa-globe"></i><span>English</span></span>
    <select id="mobile-lang-select" data-canonical="developers/da-multi-sig.html">
      
        <option value="en" selected>English</option>
      
        <option value="zh-cn">简体中文</option>
      
    </select>
  </div>
</nav>
  <!-- Scripts -->
<!-- build:js build/js/main.js -->
<script src="/js/lang_select.js"></script>
<script src="/js/toc.js"></script>
<script src="/js/mobile_nav.js"></script>
<!-- endbuild -->

<!-- Algolia -->


</body>
</html>